:1000000056C000006EC000006CC000006AC0000056
:1000100068C0000066C0000064C0000062C000004C
:1000200060C000005EC000005CC000005AC000005C
:1000300058C0000056C0000054C0000052C000006C
:1000400050C000004EC000004CC000004AC000007C
:1000500048C000000FC1000044C0000042C00000C2
:1000600040C000003EC000003CC000003AC000009C
:1000700038C0000036C0000034C0000032C00000AC
:1000800030C000002EC000002CC000002AC00000BC
:1000900028C0000026C0000024C0000022C00000CC
:1000A00020C000001EC000001CC000007900112408
:1000B0001FBECFEFDAE0DEBFCDBF21E0A0E0B1E0B0
:1000C00001C01D92A532B207E1F710E0C7E5D0E00C
:1000D00003C02197FE01F4D0C635D107D1F702D075
:1000E000F5C08ECF3F9AB2D080E091E08DD0479896
:1000F000FECF80E091E000C0FC0180E3808381E3DB
:10010000818382E3828383E3838384E3848385E33F
:10011000858386E3868387E3878388E3808789E313
:1001200081878BE282878DE283878FE284878AE2F0
:1001300085878EE586878DE387878DEF808B8EEFB1
:10014000818B81E6828B82E6838B83E6848B85E6D6
:10015000858B8CE6868B8FE6878B82E7808F84E7A2
:10016000818F8BE6828F08958898889A8898089561
:1001700063FF02C08C9A01C08C9862FF02C08D9A06
:1001800001C08D9861FF02C08E9A01C08E9860FFF9
:1001900002C08F9A01C08F98E7CF0F931F93CF9320
:1001A0008C01C62F899A67FF02C08C9A01C08C9877
:1001B000C6FF02C08D9A01C08D98C5FF02C08E9AFD
:1001C00001C08E98C4FF02C08F9A01C08F98C801E9
:1001D000CBDFC3FF02C08C9A01C08C98C2FF02C063
:1001E0008D9A01C08D98C1FF02C08E9A01C08E9871
:1001F000C0FF02C08F9A01C08F98C801CF911F9194
:100200000F91B2CF61E0C9CFCF93DF93EC01899812
:1002100063E0AEDFCE01A8DF63E0CE01A9DFCE014F
:10022000A3DF63E0CE01A4DFCE019EDF62E0CE015A
:100230009FDF6CE2CE01B1DF6FE0CE01AEDFCE0119
:10024000E1DF66E0CE01DF91CF91A7CF85B5836076
:1002500085BD89EF87BDEEE6F0E080818260808316
:100260007894109221011092220110922301109291
:10027000240108951F920F920FB60F9211248F93AD
:100280009F93AF93BF9316BC80912101909122015F
:10029000A0912301B09124010196A11DB11D80936D
:1002A000210190932201A0932301B0932401BF91D7
:1002B000AF919F918F910F900FBE0F901F90189547
:1002C000EE0FFF1F0590F491E02D0994F894FFCFF5
:00000001FF
